:02000000FE2BD5
:1002C200831212157808F1007708F000BE2183121C
:1002D200121191017808F1007708F000BE210800A0
:1002E20083169F01013085008113093095008B012F
:1002F2001310FC308312920595131508F0390C384F
:100302009500013083169200831291011215930118
:10031200CF30F000700895053030F0007008950479
:100322000800FB01FC017121F2217A08FC00790826
:10033200FB007B037C04031DA329DF227A08FC0057
:100342007908992983121211B02905308316850084
:10035200831205160230F0000030F100BE21831234
:100362000518A62901308316850083120512013073
:10037200F7000030F8006121B029F301F40174089C
:10038200803AF2007108803A7202031DCA2970088D
:10039200730203180800F501F6017608803AFF009F
:1003A20080307F02031DD729323075020318EB29F2
:1003B20000000130F5070318F60A0030F607760848
:1003C200803AFF0080307F02031DE9293230750236
:1003D200031CD9290130F3070318F40A0030F4078B
:1003E200C0298312C001C1016430F0000030F10065
:1003F200BE218312C201C3014308803AFF0080304C
:100402007F02031D062A033042020318D92A013053
:100412008316850083120512C401C5014508803A7E
:10042200FF0080307F02031D182AC83044020318DF
:10043200312A0130F7000030F800612101308312C7
:10044200C4070318C50A0030C5074508803AFF00F3
:1004520080307F02031D2F2AC8304402031C1A2A4F
:1004620083120518382A0130C0000030C10005305F
:100472008316850083120516C601C7014708803A14
:10048200FF0080307F02031D482A1E3046020318F7
:10049200612A0230F0000030F100BE2101308312E7
:1004A200C6070318C70A0030C7074708803AFF008B
:1004B20080307F02031D5F2A1E304602031C4A2A37
:1004C20083120518682A0130C0000030C1000130D3
:1004D2008316850083120512C801C9014908803AB2
:1004E200FF0080307F02031D782AC83048020318BB
:1004F200912A0230F7000030F800612101308312A6
:10050200C8070318C90A0030C9074908803AFF0022
:1005120080307F02031D8F2AC8304802031C7A2ACA
:1005220083120518982A0130C0000030C10005303E
:100532008316850083120516CA01CB014B08803A47
:10054200FF0080307F02031DA82A64304A0203188C
:10055200C12A0230F0000030F100BE2101308312C6
:10056200CA070318CB0A0030CB074B08803AFF00BA
:1005720080307F02031DBF2A64304A02031CAA2A6C
:1005820083120518C82A0130C0000030C1000130B2
:10059200C2070318C30A0030C3074308803AFF00AA
:1005A20080307F02031DD72A03304202031C082A2F
:1005B20083124108FA004008F90008000130831252
:1005C200C0000030C100C201C3014308803AFF00ED
:1005D20085307F02031DEF2A783042020318082B70
:1005E2000230F0000030F100BE2101308312C20758
:1005F2000318C30A0030C3074308803AFF0085305E
:100602007F02031D062B78304202031CF12A83125B
:1006120005180D2BC001C101C401C5014508803A6E
:10062200FF0080307F02031D182B033044020318A1
:10063200F82B8312C601C7014708803AFF008030B9
:100642007F02031D262B033046020318902B013034
:100652008316850083120512C801C9014908803A30
:10066200FF0080307F02031D382B643048020318DC
:10067200512B0130F7000030F80061210130831264
:10068200C8070318C90A0030C9074908803AFF00A1
:1006920080307F02031D4F2B64304802031C3A2B2B
:1006A20005308316850083120516CA01CB014B085B
:1006B200803AFF0080307F02031D612B64304A02C2
:1006C20003187A2B0230F0000030F100BE21013015
:1006D2008312CA070318CB0A0030CB074B08803AB3
:1006E200FF0080307F02031D782B64304A02031C16
:1006F200632B831205187F2BC001C1010130C6078D
:100702000318C70A0030C7074708803AFF00803045
:100712007F02031D8E2B03304602031C282B01305F
:100722008316850083120512CC01CD014D08803A53
:10073200FF0081307F02031DA02B2C304C020318D6
:10074200B92B0130F7000030F8006121013083122B
:10075200CC070318CD0A0030CD074D08803AFF00C0
:1007620081307F02031DB72B2C304C02031CA22BBD
:1007720005308316850083120516CE01CF014F087E
:10078200803AFF0081307F02031DC92B2C304E02BC
:100792000318E22B0230F0000030F100BE210130DC
:1007A2008312CE070318CF0A0030CF074F08803AD2
:1007B200FF0081307F02031DE02B2C304E02031C10
:1007C200CB2B83120518E72BC001C1010130C407EE
:1007D2000318C50A0030C5074508803AFF0080307B
:1007E2007F02031DF62B03304402031C1A2B8312D3
:0E07F2004108FA004008F9000800830192292E
:02400E00D4FCE0
:00000001FF
